{
  "_format": "hh-sol-artifact-1",
  "contractName": "MockERC721",
  "sourceName": "contracts/MockERC721.sol",
  "abi": [
    {
      "inputs": [
        {
          "internalType": "string",
          "name": "name",
          "type": "string"
        },
        {
          "internalType": "string",
          "name": "symbol",
          "type": "string"
        }
      ],
      "stateMutability": "nonpayable",
      "type": "constructor"
    },
    {
      "inputs": [
        {
          "internalType": "address",
          "name": "sender",
          "type": "address"
        },
        {
          "internalType": "uint256",
          "name": "tokenId",
          "type": "uint256"
        },
        {
          "internalType": "address",
          "name": "owner",
          "type": "address"
        }
      ],
      "name": "ERC721IncorrectOwner",
      "type": "error"
    },
    {
      "inputs": [
        {
          "internalType": "address",
          "name": "operator",
          "type": "address"
        },
        {
          "internalType": "uint256",
          "name": "tokenId",
          "type": "uint256"
        }
      ],
      "name": "ERC721InsufficientApproval",
      "type": "error"
    },
    {
      "inputs": [
        {
          "internalType": "address",
          "name": "approver",
          "type": "address"
        }
      ],
      "name": "ERC721InvalidApprover",
      "type": "error"
    },
    {
      "inputs": [
        {
          "internalType": "address",
          "name": "operator",
          "type": "address"
        }
      ],
      "name": "ERC721InvalidOperator",
      "type": "error"
    },
    {
      "inputs": [
        {
          "internalType": "address",
          "name": "owner",
          "type": "address"
        }
      ],
      "name": "ERC721InvalidOwner",
      "type": "error"
    },
    {
      "inputs": [
        {
          "internalType": "address",
          "name": "receiver",
          "type": "address"
        }
      ],
      "name": "ERC721InvalidReceiver",
      "type": "error"
    },
    {
      "inputs": [
        {
          "internalType": "address",
          "name": "sender",
          "type": "address"
        }
      ],
      "name": "ERC721InvalidSender",
      "type": "error"
    },
    {
      "inputs": [
        {
          "internalType": "uint256",
          "name": "tokenId",
          "type": "uint256"
        }
      ],
      "name": "ERC721NonexistentToken",
      "type": "error"
    },
    {
      "anonymous": false,
      "inputs": [
        {
          "indexed": true,
          "internalType": "address",
          "name": "owner",
          "type": "address"
        },
        {
          "indexed": true,
          "internalType": "address",
          "name": "approved",
          "type": "address"
        },
        {
          "indexed": true,
          "internalType": "uint256",
          "name": "tokenId",
          "type": "uint256"
        }
      ],
      "name": "Approval",
      "type": "event"
    },
    {
      "anonymous": false,
      "inputs": [
        {
          "indexed": true,
          "internalType": "address",
          "name": "owner",
          "type": "address"
        },
        {
          "indexed": true,
          "internalType": "address",
          "name": "operator",
          "type": "address"
        },
        {
          "indexed": false,
          "internalType": "bool",
          "name": "approved",
          "type": "bool"
        }
      ],
      "name": "ApprovalForAll",
      "type": "event"
    },
    {
      "anonymous": false,
      "inputs": [
        {
          "indexed": false,
          "internalType": "uint256",
          "name": "_fromTokenId",
          "type": "uint256"
        },
        {
          "indexed": false,
          "internalType": "uint256",
          "name": "_toTokenId",
          "type": "uint256"
        }
      ],
      "name": "BatchMetadataUpdate",
      "type": "event"
    },
    {
      "anonymous": false,
      "inputs": [
        {
          "indexed": false,
          "internalType": "uint256",
          "name": "_tokenId",
          "type": "uint256"
        }
      ],
      "name": "MetadataUpdate",
      "type": "event"
    },
    {
      "anonymous": false,
      "inputs": [
        {
          "indexed": true,
          "internalType": "address",
          "name": "from",
          "type": "address"
        },
        {
          "indexed": true,
          "internalType": "address",
          "name": "to",
          "type": "address"
        },
        {
          "indexed": true,
          "internalType": "uint256",
          "name": "tokenId",
          "type": "uint256"
        }
      ],
      "name": "Transfer",
      "type": "event"
    },
    {
      "inputs": [
        {
          "internalType": "address",
          "name": "to",
          "type": "address"
        },
        {
          "internalType": "uint256",
          "name": "tokenId",
          "type": "uint256"
        }
      ],
      "name": "approve",
      "outputs": [],
      "stateMutability": "nonpayable",
      "type": "function"
    },
    {
      "inputs": [
        {
          "internalType": "address",
          "name": "owner",
          "type": "address"
        }
      ],
      "name": "balanceOf",
      "outputs": [
        {
          "internalType": "uint256",
          "name": "",
          "type": "uint256"
        }
      ],
      "stateMutability": "view",
      "type": "function"
    },
    {
      "inputs": [
        {
          "internalType": "uint256",
          "name": "tokenId",
          "type": "uint256"
        }
      ],
      "name": "getApproved",
      "outputs": [
        {
          "internalType": "address",
          "name": "",
          "type": "address"
        }
      ],
      "stateMutability": "view",
      "type": "function"
    },
    {
      "inputs": [
        {
          "internalType": "address",
          "name": "owner",
          "type": "address"
        },
        {
          "internalType": "address",
          "name": "operator",
          "type": "address"
        }
      ],
      "name": "isApprovedForAll",
      "outputs": [
        {
          "internalType": "bool",
          "name": "",
          "type": "bool"
        }
      ],
      "stateMutability": "view",
      "type": "function"
    },
    {
      "inputs": [],
      "name": "name",
      "outputs": [
        {
          "internalType": "string",
          "name": "",
          "type": "string"
        }
      ],
      "stateMutability": "view",
      "type": "function"
    },
    {
      "inputs": [
        {
          "internalType": "uint256",
          "name": "tokenId",
          "type": "uint256"
        }
      ],
      "name": "ownerOf",
      "outputs": [
        {
          "internalType": "address",
          "name": "",
          "type": "address"
        }
      ],
      "stateMutability": "view",
      "type": "function"
    },
    {
      "inputs": [
        {
          "internalType": "address",
          "name": "to",
          "type": "address"
        },
        {
          "internalType": "uint256",
          "name": "tokenId",
          "type": "uint256"
        }
      ],
      "name": "safeMint",
      "outputs": [],
      "stateMutability": "nonpayable",
      "type": "function"
    },
    {
      "inputs": [
        {
          "internalType": "address",
          "name": "from",
          "type": "address"
        },
        {
          "internalType": "address",
          "name": "to",
          "type": "address"
        },
        {
          "internalType": "uint256",
          "name": "tokenId",
          "type": "uint256"
        }
      ],
      "name": "safeTransferFrom",
      "outputs": [],
      "stateMutability": "nonpayable",
      "type": "function"
    },
    {
      "inputs": [
        {
          "internalType": "address",
          "name": "from",
          "type": "address"
        },
        {
          "internalType": "address",
          "name": "to",
          "type": "address"
        },
        {
          "internalType": "uint256",
          "name": "tokenId",
          "type": "uint256"
        },
        {
          "internalType": "bytes",
          "name": "data",
          "type": "bytes"
        }
      ],
      "name": "safeTransferFrom",
      "outputs": [],
      "stateMutability": "nonpayable",
      "type": "function"
    },
    {
      "inputs": [
        {
          "internalType": "address",
          "name": "operator",
          "type": "address"
        },
        {
          "internalType": "bool",
          "name": "approved",
          "type": "bool"
        }
      ],
      "name": "setApprovalForAll",
      "outputs": [],
      "stateMutability": "nonpayable",
      "type": "function"
    },
    {
      "inputs": [
        {
          "internalType": "bytes4",
          "name": "interfaceId",
          "type": "bytes4"
        }
      ],
      "name": "supportsInterface",
      "outputs": [
        {
          "internalType": "bool",
          "name": "",
          "type": "bool"
        }
      ],
      "stateMutability": "view",
      "type": "function"
    },
    {
      "inputs": [],
      "name": "symbol",
      "outputs": [
        {
          "internalType": "string",
          "name": "",
          "type": "string"
        }
      ],
      "stateMutability": "view",
      "type": "function"
    },
    {
      "inputs": [
        {
          "internalType": "uint256",
          "name": "tokenId",
          "type": "uint256"
        }
      ],
      "name": "tokenURI",
      "outputs": [
        {
          "internalType": "string",
          "name": "",
          "type": "string"
        }
      ],
      "stateMutability": "view",
      "type": "function"
    },
    {
      "inputs": [
        {
          "internalType": "address",
          "name": "from",
          "type": "address"
        },
        {
          "internalType": "address",
          "name": "to",
          "type": "address"
        },
        {
          "internalType": "uint256",
          "name": "tokenId",
          "type": "uint256"
        }
      ],
      "name": "transferFrom",
      "outputs": [],
      "stateMutability": "nonpayable",
      "type": "function"
    }
  ],
  "bytecode": "0x60806040523480156200001157600080fd5b5060405162002557380380620025578339818101604052810190620000379190620001fa565b818181600090816200004a9190620004ca565b5080600190816200005c9190620004ca565b5050505050620005b1565b6000604051905090565b600080fd5b600080fd5b600080fd5b600080fd5b6000601f19601f8301169050919050565b7f4e487b7100000000000000000000000000000000000000000000000000000000600052604160045260246000fd5b620000d08262000085565b810181811067ffffffffffffffff82111715620000f257620000f162000096565b5b80604052505050565b60006200010762000067565b9050620001158282620000c5565b919050565b600067ffffffffffffffff82111562000138576200013762000096565b5b620001438262000085565b9050602081019050919050565b60005b838110156200017057808201518184015260208101905062000153565b60008484015250505050565b6000620001936200018d846200011a565b620000fb565b905082815260208101848484011115620001b257620001b162000080565b5b620001bf84828562000150565b509392505050565b600082601f830112620001df57620001de6200007b565b5b8151620001f18482602086016200017c565b91505092915050565b6000806040838503121562000214576200021362000071565b5b600083015167ffffffffffffffff81111562000235576200023462000076565b5b6200024385828601620001c7565b925050602083015167ffffffffffffffff81111562000267576200026662000076565b5b6200027585828601620001c7565b9150509250929050565b600081519050919050565b7f4e487b7100000000000000000000000000000000000000000000000000000000600052602260045260246000fd5b60006002820490506001821680620002d257607f821691505b602082108103620002e857620002e76200028a565b5b50919050565b60008190508160005260206000209050919050565b60006020601f8301049050919050565b600082821b905092915050565b600060088302620003527fffffffffffffffffffffffffffffffffffffffffffffffffffffffffffffffff8262000313565b6200035e868362000313565b95508019841693508086168417925050509392505050565b6000819050919050565b6000819050919050565b6000620003ab620003a56200039f8462000376565b62000380565b62000376565b9050919050565b6000819050919050565b620003c7836200038a565b620003df620003d682620003b2565b84845462000320565b825550505050565b600090565b620003f6620003e7565b62000403818484620003bc565b505050565b5b818110156200042b576200041f600082620003ec565b60018101905062000409565b5050565b601f8211156200047a576200044481620002ee565b6200044f8462000303565b810160208510156200045f578190505b620004776200046e8562000303565b83018262000408565b50505b505050565b600082821c905092915050565b60006200049f600019846008026200047f565b1980831691505092915050565b6000620004ba83836200048c565b9150826002028217905092915050565b620004d5826200027f565b67ffffffffffffffff811115620004f157620004f062000096565b5b620004fd8254620002b9565b6200050a8282856200042f565b600060209050601f8311600181146200054257600084156200052d578287015190505b620005398582620004ac565b865550620005a9565b601f1984166200055286620002ee565b60005b828110156200057c5784890151825560018201915060208501945060208101905062000555565b868310156200059c578489015162000598601f8916826200048c565b8355505b6001600288020188555050505b505050505050565b611f9680620005c16000396000f3fe608060405234801561001057600080fd5b50600436106100ea5760003560e01c806370a082311161008c578063a22cb46511610066578063a22cb4651461025b578063b88d4fde14610277578063c87b56dd14610293578063e985e9c5146102c3576100ea565b806370a08231146101f157806395d89b4114610221578063a14481941461023f576100ea565b8063095ea7b3116100c8578063095ea7b31461016d57806323b872dd1461018957806342842e0e146101a55780636352211e146101c1576100ea565b806301ffc9a7146100ef57806306fdde031461011f578063081812fc1461013d575b600080fd5b610109600480360381019061010491906117e0565b6102f3565b6040516101169190611828565b60405180910390f35b610127610305565b60405161013491906118d3565b60405180910390f35b6101576004803603810190610152919061192b565b610397565b6040516101649190611999565b60405180910390f35b610187600480360381019061018291906119e0565b6103b3565b005b6101a3600480360381019061019e9190611a20565b6103c9565b005b6101bf60048036038101906101ba9190611a20565b6104cb565b005b6101db60048036038101906101d6919061192b565b6104eb565b6040516101e89190611999565b60405180910390f35b61020b60048036038101906102069190611a73565b6104fd565b6040516102189190611aaf565b60405180910390f35b6102296105b7565b60405161023691906118d3565b60405180910390f35b610259600480360381019061025491906119e0565b610649565b005b61027560048036038101906102709190611af6565b610657565b005b610291600480360381019061028c9190611c6b565b61066d565b005b6102ad60048036038101906102a8919061192b565b610692565b6040516102ba91906118d3565b60405180910390f35b6102dd60048036038101906102d89190611cee565b6106a4565b6040516102ea9190611828565b60405180910390f35b60006102fe82610738565b9050919050565b60606000805461031490611d5d565b80601f016020809104026020016040519081016040528092919081815260200182805461034090611d5d565b801561038d5780601f106103625761010080835404028352916020019161038d565b820191906000526020600020905b81548152906001019060200180831161037057829003601f168201915b5050505050905090565b60006103a282610799565b506103ac82610821565b9050919050565b6103c582826103c061085e565b610866565b5050565b600073ffffffffffffffffffffffffffffffffffffffff168273ffffffffffffffffffffffffffffffffffffffff160361043b5760006040517f64a0ae920000000000000000000000000000000000000000000000000000000081526004016104329190611999565b60405180910390fd5b600061044f838361044a61085e565b610878565b90508373ffffffffffffffffffffffffffffffffffffffff168173ffffffffffffffffffffffffffffffffffffffff16146104c5578382826040517f64283d7b0000000000000000000000000000000000000000000000000000000081526004016104bc93929190611d8e565b60405180910390fd5b50505050565b6104e68383836040518060200160405280600081525061066d565b505050565b60006104f682610799565b9050919050565b60008073ffffffffffffffffffffffffffffffffffffffff168273ffffffffffffffffffffffffffffffffffffffff16036105705760006040517f89c62b640000000000000000000000000000000000000000000000000000000081526004016105679190611999565b60405180910390fd5b600360008373ffffffffffffffffffffffffffffffffffffffff1673ffffffffffffffffffffffffffffffffffffffff168152602001908152602001600020549050919050565b6060600180546105c690611d5d565b80601f01602080910402602001604051908101604052809291908181526020018280546105f290611d5d565b801561063f5780601f106106145761010080835404028352916020019161063f565b820191906000526020600020905b81548152906001019060200180831161062257829003601f168201915b5050505050905090565b6106538282610a92565b5050565b61066961066261085e565b8383610ab0565b5050565b6106788484846103c9565b61068c61068361085e565b85858585610c1f565b50505050565b606061069d82610dd0565b9050919050565b6000600560008473ffffffffffffffffffffffffffffffffffffffff1673ffffffffffffffffffffffffffffffffffffffff16815260200190815260200160002060008373ffffffffffffffffffffffffffffffffffffffff1673ffffffffffffffffffffffffffffffffffffffff16815260200190815260200160002060009054906101000a900460ff16905092915050565b6000634906490660e01b7bffffffffffffffffffffffffffffffffffffffffffffffffffffffff1916827bffffffffffffffffffffffffffffffffffffffffffffffffffffffff19161480610792575061079182610ee3565b5b9050919050565b6000806107a583610fc5565b9050600073ffffffffffffffffffffffffffffffffffffffff168173ffffffffffffffffffffffffffffffffffffffff160361081857826040517f7e27328900000000000000000000000000000000000000000000000000000000815260040161080f9190611aaf565b60405180910390fd5b80915050919050565b60006004600083815260200190815260200160002060009054906101000a900473ffffffffffffffffffffffffffffffffffffffff169050919050565b600033905090565b6108738383836001611002565b505050565b60008061088484610fc5565b9050600073ffffffffffffffffffffffffffffffffffffffff168373ffffffffffffffffffffffffffffffffffffffff16146108c6576108c58184866111c7565b5b600073ffffffffffffffffffffffffffffffffffffffff168173ffffffffffffffffffffffffffffffffffffffff161461095757610908600085600080611002565b6001600360008373ffffffffffffffffffffffffffffffffffffffff1673ffffffffffffffffffffffffffffffffffffffff168152602001908152602001600020600082825403925050819055505b600073ffffffffffffffffffffffffffffffffffffffff168573ffffffffffffffffffffffffffffffffffffffff16146109da576001600360008773ffffffffffffffffffffffffffffffffffffffff1673ffffffffffffffffffffffffffffffffffffffff168152602001908152602001600020600082825401925050819055505b846002600086815260200190815260200160002060006101000a81548173ffffffffffffffffffffffffffffffffffffffff021916908373ffffffffffffffffffffffffffffffffffffffff160217905550838573ffffffffffffffffffffffffffffffffffffffff168273ffffffffffffffffffffffffffffffffffffffff167fddf252ad1be2c89b69c2b068fc378daa952ba7f163c4a11628f55a4df523b3ef60405160405180910390a4809150509392505050565b610aac82826040518060200160405280600081525061128b565b5050565b600073ffffffffffffffffffffffffffffffffffffffff168273ffffffffffffffffffffffffffffffffffffffff1603610b2157816040517f5b08ba18000000000000000000000000000000000000000000000000000000008152600401610b189190611999565b60405180910390fd5b80600560008573ffffffffffffffffffffffffffffffffffffffff1673ffffffffffffffffffffffffffffffffffffffff16815260200190815260200160002060008473ffffffffffffffffffffffffffffffffffffffff1673ffffffffffffffffffffffffffffffffffffffff16815260200190815260200160002060006101000a81548160ff0219169083151502179055508173ffffffffffffffffffffffffffffffffffffffff168373ffffffffffffffffffffffffffffffffffffffff167f17307eab39ab6107e8899845ad3d59bd9653f200f220920489ca2b5937696c3183604051610c129190611828565b60405180910390a3505050565b60008373ffffffffffffffffffffffffffffffffffffffff163b1115610dc9578273ffffffffffffffffffffffffffffffffffffffff1663150b7a02868685856040518563ffffffff1660e01b8152600401610c7e9493929190611e1a565b6020604051808303816000875af1925050508015610cba57506040513d601f19601f82011682018060405250810190610cb79190611e7b565b60015b610d3e573d8060008114610cea576040519150601f19603f3d011682016040523d82523d6000602084013e610cef565b606091505b506000815103610d3657836040517f64a0ae92000000000000000000000000000000000000000000000000000000008152600401610d2d9190611999565b60405180910390fd5b805160208201fd5b63150b7a0260e01b7bffffffffffffffffffffffffffffffffffffffffffffffffffffffff1916817bffffffffffffffffffffffffffffffffffffffffffffffffffffffff191614610dc757836040517f64a0ae92000000000000000000000000000000000000000000000000000000008152600401610dbe9190611999565b60405180910390fd5b505b5050505050565b6060610ddb82610799565b506000600660008481526020019081526020016000208054610dfc90611d5d565b80601f0160208091040260200160405190810160405280929190818152602001828054610e2890611d5d565b8015610e755780601f10610e4a57610100808354040283529160200191610e75565b820191906000526020600020905b815481529060010190602001808311610e5857829003601f168201915b505050505090506000610e866112af565b90506000815103610e9b578192505050610ede565b600082511115610ed0578082604051602001610eb8929190611ee4565b60405160208183030381529060405292505050610ede565b610ed9846112c6565b925050505b919050565b60007f80ac58cd000000000000000000000000000000000000000000000000000000007bffffffffffffffffffffffffffffffffffffffffffffffffffffffff1916827bffffffffffffffffffffffffffffffffffffffffffffffffffffffff19161480610fae57507f5b5e139f000000000000000000000000000000000000000000000000000000007bffffffffffffffffffffffffffffffffffffffffffffffffffffffff1916827bffffffffffffffffffffffffffffffffffffffffffffffffffffffff1916145b80610fbe5750610fbd8261132f565b5b9050919050565b60006002600083815260200190815260200160002060009054906101000a900473ffffffffffffffffffffffffffffffffffffffff169050919050565b808061103b5750600073ffffffffffffffffffffffffffffffffffffffff168273ffffffffffffffffffffffffffffffffffffffff1614155b1561116f57600061104b84610799565b9050600073ffffffffffffffffffffffffffffffffffffffff168373ffffffffffffffffffffffffffffffffffffffff16141580156110b657508273ffffffffffffffffffffffffffffffffffffffff168173ffffffffffffffffffffffffffffffffffffffff1614155b80156110c957506110c781846106a4565b155b1561110b57826040517fa9fbf51f0000000000000000000000000000000000000000000000000000000081526004016111029190611999565b60405180910390fd5b811561116d57838573ffffffffffffffffffffffffffffffffffffffff168273ffffffffffffffffffffffffffffffffffffffff167f8c5be1e5ebec7d5bd14f71427d1e84f3dd0314c0f7b2291e5b200ac8c7c3b92560405160405180910390a45b505b836004600085815260200190815260200160002060006101000a81548173ffffffffffffffffffffffffffffffffffffffff021916908373ffffffffffffffffffffffffffffffffffffffff16021790555050505050565b6111d2838383611399565b61128657600073ffffffffffffffffffffffffffffffffffffffff168373ffffffffffffffffffffffffffffffffffffffff160361124757806040517f7e27328900000000000000000000000000000000000000000000000000000000815260040161123e9190611aaf565b60405180910390fd5b81816040517f177e802f00000000000000000000000000000000000000000000000000000000815260040161127d929190611f08565b60405180910390fd5b505050565b611295838361145a565b6112aa6112a061085e565b6000858585610c1f565b505050565b606060405180602001604052806000815250905090565b60606112d182610799565b5060006112dc6112af565b905060008151116112fc5760405180602001604052806000815250611327565b8061130684611553565b604051602001611317929190611ee4565b6040516020818303038152906040525b915050919050565b60007f01ffc9a7000000000000000000000000000000000000000000000000000000007bffffffffffffffffffffffffffffffffffffffffffffffffffffffff1916827bffffffffffffffffffffffffffffffffffffffffffffffffffffffff1916149050919050565b60008073ffffffffffffffffffffffffffffffffffffffff168373ffffffffffffffffffffffffffffffffffffffff161415801561145157508273ffffffffffffffffffffffffffffffffffffffff168473ffffffffffffffffffffffffffffffffffffffff161480611412575061141184846106a4565b5b8061145057508273ffffffffffffffffffffffffffffffffffffffff1661143883610821565b73ffffffffffffffffffffffffffffffffffffffff16145b5b90509392505050565b600073ffffffffffffffffffffffffffffffffffffffff168273ffffffffffffffffffffffffffffffffffffffff16036114cc5760006040517f64a0ae920000000000000000000000000000000000000000000000000000000081526004016114c39190611999565b60405180910390fd5b60006114da83836000610878565b9050600073ffffffffffffffffffffffffffffffffffffffff168173ffffffffffffffffffffffffffffffffffffffff161461154e5760006040517f73c6ac6e0000000000000000000000000000000000000000000000000000000081526004016115459190611999565b60405180910390fd5b505050565b60606000600161156284611621565b01905060008167ffffffffffffffff81111561158157611580611b40565b5b6040519080825280601f01601f1916602001820160405280156115b35781602001600182028036833780820191505090505b509050600082602083010190505b600115611616578080600190039150507f3031323334353637383961626364656600000000000000000000000000000000600a86061a8153600a858161160a57611609611f31565b5b049450600085036115c1575b819350505050919050565b600080600090507a184f03e93ff9f4daa797ed6e38ed64bf6a1f010000000000000000831061167f577a184f03e93ff9f4daa797ed6e38ed64bf6a1f010000000000000000838161167557611674611f31565b5b0492506040810190505b6d04ee2d6d415b85acef810000000083106116bc576d04ee2d6d415b85acef810000000083816116b2576116b1611f31565b5b0492506020810190505b662386f26fc1000083106116eb57662386f26fc1000083816116e1576116e0611f31565b5b0492506010810190505b6305f5e1008310611714576305f5e100838161170a57611709611f31565b5b0492506008810190505b612710831061173957612710838161172f5761172e611f31565b5b0492506004810190505b6064831061175c576064838161175257611751611f31565b5b0492506002810190505b600a831061176b576001810190505b80915050919050565b6000604051905090565b600080fd5b600080fd5b60007fffffffff0000000000000000000000000000000000000000000000000000000082169050919050565b6117bd81611788565b81146117c857600080fd5b50565b6000813590506117da816117b4565b92915050565b6000602082840312156117f6576117f561177e565b5b6000611804848285016117cb565b91505092915050565b60008115159050919050565b6118228161180d565b82525050565b600060208201905061183d6000830184611819565b92915050565b600081519050919050565b600082825260208201905092915050565b60005b8381101561187d578082015181840152602081019050611862565b60008484015250505050565b6000601f19601f8301169050919050565b60006118a582611843565b6118af818561184e565b93506118bf81856020860161185f565b6118c881611889565b840191505092915050565b600060208201905081810360008301526118ed818461189a565b905092915050565b6000819050919050565b611908816118f5565b811461191357600080fd5b50565b600081359050611925816118ff565b92915050565b6000602082840312156119415761194061177e565b5b600061194f84828501611916565b91505092915050565b600073ffffffffffffffffffffffffffffffffffffffff82169050919050565b600061198382611958565b9050919050565b61199381611978565b82525050565b60006020820190506119ae600083018461198a565b92915050565b6119bd81611978565b81146119c857600080fd5b50565b6000813590506119da816119b4565b92915050565b600080604083850312156119f7576119f661177e565b5b6000611a05858286016119cb565b9250506020611a1685828601611916565b9150509250929050565b600080600060608486031215611a3957611a3861177e565b5b6000611a47868287016119cb565b9350506020611a58868287016119cb565b9250506040611a6986828701611916565b9150509250925092565b600060208284031215611a8957611a8861177e565b5b6000611a97848285016119cb565b91505092915050565b611aa9816118f5565b82525050565b6000602082019050611ac46000830184611aa0565b92915050565b611ad38161180d565b8114611ade57600080fd5b50565b600081359050611af081611aca565b92915050565b60008060408385031215611b0d57611b0c61177e565b5b6000611b1b858286016119cb565b9250506020611b2c85828601611ae1565b9150509250929050565b600080fd5b600080fd5b7f4e487b7100000000000000000000000000000000000000000000000000000000600052604160045260246000fd5b611b7882611889565b810181811067ffffffffffffffff82111715611b9757611b96611b40565b5b80604052505050565b6000611baa611774565b9050611bb68282611b6f565b919050565b600067ffffffffffffffff821115611bd657611bd5611b40565b5b611bdf82611889565b9050602081019050919050565b82818337600083830152505050565b6000611c0e611c0984611bbb565b611ba0565b905082815260208101848484011115611c2a57611c29611b3b565b5b611c35848285611bec565b509392505050565b600082601f830112611c5257611c51611b36565b5b8135611c62848260208601611bfb565b91505092915050565b60008060008060808587031215611c8557611c8461177e565b5b6000611c93878288016119cb565b9450506020611ca4878288016119cb565b9350506040611cb587828801611916565b925050606085013567ffffffffffffffff811115611cd657611cd5611783565b5b611ce287828801611c3d565b91505092959194509250565b60008060408385031215611d0557611d0461177e565b5b6000611d13858286016119cb565b9250506020611d24858286016119cb565b9150509250929050565b7f4e487b7100000000000000000000000000000000000000000000000000000000600052602260045260246000fd5b60006002820490506001821680611d7557607f821691505b602082108103611d8857611d87611d2e565b5b50919050565b6000606082019050611da3600083018661198a565b611db06020830185611aa0565b611dbd604083018461198a565b949350505050565b600081519050919050565b600082825260208201905092915050565b6000611dec82611dc5565b611df68185611dd0565b9350611e0681856020860161185f565b611e0f81611889565b840191505092915050565b6000608082019050611e2f600083018761198a565b611e3c602083018661198a565b611e496040830185611aa0565b8181036060830152611e5b8184611de1565b905095945050505050565b600081519050611e75816117b4565b92915050565b600060208284031215611e9157611e9061177e565b5b6000611e9f84828501611e66565b91505092915050565b600081905092915050565b6000611ebe82611843565b611ec88185611ea8565b9350611ed881856020860161185f565b80840191505092915050565b6000611ef08285611eb3565b9150611efc8284611eb3565b91508190509392505050565b6000604082019050611f1d600083018561198a565b611f2a6020830184611aa0565b9392505050565b7f4e487b7100000000000000000000000000000000000000000000000000000000600052601260045260246000fdfea2646970667358221220074db4cddc4c219446fdb15f173922566714f7d0ee2b5b43f64f17d75e4ff6fb64736f6c63430008140033",
  "linkReferences": {},
  "deployedLinkReferences": {}
}