{
  "_format": "hh-sol-artifact-1",
  "contractName": "Escrow",
  "sourceName": "contracts/Escrow.sol",
  "abi": [
    {
      "inputs": [
        {
          "internalType": "address",
          "name": "_erc20Token",
          "type": "address"
        },
        {
          "internalType": "address",
          "name": "_erc721Token",
          "type": "address"
        }
      ],
      "stateMutability": "nonpayable",
      "type": "constructor"
    },
    {
      "inputs": [
        {
          "internalType": "address",
          "name": "owner",
          "type": "address"
        }
      ],
      "name": "OwnableInvalidOwner",
      "type": "error"
    },
    {
      "inputs": [
        {
          "internalType": "address",
          "name": "account",
          "type": "address"
        }
      ],
      "name": "OwnableUnauthorizedAccount",
      "type": "error"
    },
    {
      "anonymous": false,
      "inputs": [
        {
          "indexed": true,
          "internalType": "uint256",
          "name": "escrowId",
          "type": "uint256"
        },
        {
          "indexed": true,
          "internalType": "address",
          "name": "seller",
          "type": "address"
        },
        {
          "indexed": false,
          "internalType": "uint256",
          "name": "erc721TokenId",
          "type": "uint256"
        }
      ],
      "name": "EscrowAssetDelivered",
      "type": "event"
    },
    {
      "anonymous": false,
      "inputs": [
        {
          "indexed": true,
          "internalType": "uint256",
          "name": "escrowId",
          "type": "uint256"
        },
        {
          "indexed": true,
          "internalType": "address",
          "name": "buyer",
          "type": "address"
        },
        {
          "indexed": true,
          "internalType": "address",
          "name": "seller",
          "type": "address"
        }
      ],
      "name": "EscrowCompleted",
      "type": "event"
    },
    {
      "anonymous": false,
      "inputs": [
        {
          "indexed": true,
          "internalType": "uint256",
          "name": "escrowId",
          "type": "uint256"
        },
        {
          "indexed": true,
          "internalType": "address",
          "name": "buyer",
          "type": "address"
        },
        {
          "indexed": true,
          "internalType": "address",
          "name": "seller",
          "type": "address"
        },
        {
          "indexed": false,
          "internalType": "uint256",
          "name": "erc20Amount",
          "type": "uint256"
        },
        {
          "indexed": false,
          "internalType": "uint256",
          "name": "erc721TokenId",
          "type": "uint256"
        }
      ],
      "name": "EscrowCreated",
      "type": "event"
    },
    {
      "anonymous": false,
      "inputs": [
        {
          "indexed": true,
          "internalType": "uint256",
          "name": "escrowId",
          "type": "uint256"
        },
        {
          "indexed": true,
          "internalType": "address",
          "name": "buyer",
          "type": "address"
        },
        {
          "indexed": false,
          "internalType": "uint256",
          "name": "amount",
          "type": "uint256"
        }
      ],
      "name": "EscrowFundsDeposited",
      "type": "event"
    },
    {
      "anonymous": false,
      "inputs": [
        {
          "indexed": true,
          "internalType": "address",
          "name": "previousOwner",
          "type": "address"
        },
        {
          "indexed": true,
          "internalType": "address",
          "name": "newOwner",
          "type": "address"
        }
      ],
      "name": "OwnershipTransferred",
      "type": "event"
    },
    {
      "inputs": [
        {
          "internalType": "address payable",
          "name": "_seller",
          "type": "address"
        },
        {
          "internalType": "uint256",
          "name": "_erc20Amount",
          "type": "uint256"
        },
        {
          "internalType": "uint256",
          "name": "_erc721TokenId",
          "type": "uint256"
        }
      ],
      "name": "createEscrow",
      "outputs": [
        {
          "internalType": "uint256",
          "name": "",
          "type": "uint256"
        }
      ],
      "stateMutability": "nonpayable",
      "type": "function"
    },
    {
      "inputs": [
        {
          "internalType": "uint256",
          "name": "_escrowId",
          "type": "uint256"
        }
      ],
      "name": "deliverAsset",
      "outputs": [],
      "stateMutability": "nonpayable",
      "type": "function"
    },
    {
      "inputs": [
        {
          "internalType": "uint256",
          "name": "_escrowId",
          "type": "uint256"
        }
      ],
      "name": "depositFunds",
      "outputs": [],
      "stateMutability": "nonpayable",
      "type": "function"
    },
    {
      "inputs": [],
      "name": "erc20Token",
      "outputs": [
        {
          "internalType": "contract IERC20",
          "name": "",
          "type": "address"
        }
      ],
      "stateMutability": "view",
      "type": "function"
    },
    {
      "inputs": [],
      "name": "erc721Token",
      "outputs": [
        {
          "internalType": "contract IERC721",
          "name": "",
          "type": "address"
        }
      ],
      "stateMutability": "view",
      "type": "function"
    },
    {
      "inputs": [
        {
          "internalType": "uint256",
          "name": "",
          "type": "uint256"
        }
      ],
      "name": "escrows",
      "outputs": [
        {
          "internalType": "address payable",
          "name": "buyer",
          "type": "address"
        },
        {
          "internalType": "address payable",
          "name": "seller",
          "type": "address"
        },
        {
          "internalType": "uint256",
          "name": "erc20Amount",
          "type": "uint256"
        },
        {
          "internalType": "uint256",
          "name": "erc721TokenId",
          "type": "uint256"
        },
        {
          "internalType": "enum Escrow.State",
          "name": "currentState",
          "type": "uint8"
        }
      ],
      "stateMutability": "view",
      "type": "function"
    },
    {
      "inputs": [
        {
          "internalType": "address",
          "name": "operator",
          "type": "address"
        },
        {
          "internalType": "address",
          "name": "from",
          "type": "address"
        },
        {
          "internalType": "uint256",
          "name": "tokenId",
          "type": "uint256"
        },
        {
          "internalType": "bytes",
          "name": "data",
          "type": "bytes"
        }
      ],
      "name": "onERC721Received",
      "outputs": [
        {
          "internalType": "bytes4",
          "name": "",
          "type": "bytes4"
        }
      ],
      "stateMutability": "nonpayable",
      "type": "function"
    },
    {
      "inputs": [],
      "name": "owner",
      "outputs": [
        {
          "internalType": "address",
          "name": "",
          "type": "address"
        }
      ],
      "stateMutability": "view",
      "type": "function"
    },
    {
      "inputs": [],
      "name": "renounceOwnership",
      "outputs": [],
      "stateMutability": "nonpayable",
      "type": "function"
    },
    {
      "inputs": [
        {
          "internalType": "address",
          "name": "newOwner",
          "type": "address"
        }
      ],
      "name": "transferOwnership",
      "outputs": [],
      "stateMutability": "nonpayable",
      "type": "function"
    }
  ],
  "bytecode": "0x60806040523480156200001157600080fd5b50604051620021d1380380620021d1833981810160405281019062000037919062000277565b33600073ffffffffffffffffffffffffffffffffffffffff168173ffffffffffffffffffffffffffffffffffffffff1603620000ad5760006040517f1e4fbdf7000000000000000000000000000000000000000000000000000000008152600401620000a49190620002cf565b60405180910390fd5b620000be816200014960201b60201c565b5081600160006101000a81548173ffffffffffffffffffffffffffffffffffffffff021916908373ffffffffffffffffffffffffffffffffffffffff16021790555080600260006101000a81548173ffffffffffffffffffffffffffffffffffffffff021916908373ffffffffffffffffffffffffffffffffffffffff1602179055505050620002ec565b60008060009054906101000a900473ffffffffffffffffffffffffffffffffffffffff169050816000806101000a81548173ffffffffffffffffffffffffffffffffffffffff021916908373ffffffffffffffffffffffffffffffffffffffff1602179055508173ffffffffffffffffffffffffffffffffffffffff168173ffffffffffffffffffffffffffffffffffffffff167f8be0079c531659141344cd1fd0a4f28419497f9722a3daafe3b4186f6b6457e060405160405180910390a35050565b600080fd5b600073ffffffffffffffffffffffffffffffffffffffff82169050919050565b60006200023f8262000212565b9050919050565b620002518162000232565b81146200025d57600080fd5b50565b600081519050620002718162000246565b92915050565b600080604083850312156200029157620002906200020d565b5b6000620002a18582860162000260565b9250506020620002b48582860162000260565b9150509250929050565b620002c98162000232565b82525050565b6000602082019050620002e66000830184620002be565b92915050565b611ed580620002fc6000396000f3fe608060405234801561001057600080fd5b506004361061009e5760003560e01c80638a13eea7116100665780638a13eea71461014b5780638da5cb5b14610169578063af29592714610187578063e2ecb311146101a3578063f2fde38b146101d35761009e565b8063012f52ee146100a3578063150b7a02146100d75780633b76594d146101075780635f2d6bcd14610123578063715018a614610141575b600080fd5b6100bd60048036038101906100b891906111b3565b6101ef565b6040516100ce9594939291906112a7565b60405180910390f35b6100f160048036038101906100ec919061147e565b610272565b6040516100fe919061153c565b60405180910390f35b610121600480360381019061011c91906111b3565b6106c6565b005b61012b610956565b60405161013891906115b6565b60405180910390f35b61014961097c565b005b610153610990565b60405161016091906115f2565b60405180910390f35b6101716109b6565b60405161017e919061161c565b60405180910390f35b6101a1600480360381019061019c91906111b3565b6109df565b005b6101bd60048036038101906101b89190611663565b610bf2565b6040516101ca91906116b6565b60405180910390f35b6101ed60048036038101906101e891906116d1565b610f90565b005b60036020528060005260406000206000915090508060000160009054906101000a900473ffffffffffffffffffffffffffffffffffffffff16908060010160009054906101000a900473ffffffffffffffffffffffffffffffffffffffff16908060020154908060030154908060040160009054906101000a900460ff16905085565b600080600190505b60045481116106825783600360008381526020019081526020016000206003015414801561030957508473ffffffffffffffffffffffffffffffffffffffff166003600083815260200190815260200160002060010160009054906101000a900473ffffffffffffffffffffffffffffffffffffffff1673ffffffffffffffffffffffffffffffffffffffff16145b801561035c57506001600281111561032457610323611230565b5b6003600083815260200190815260200160002060040160009054906101000a900460ff16600281111561035a57610359611230565b5b145b1561066f57600260009054906101000a900473ffffffffffffffffffffffffffffffffffffffff1673ffffffffffffffffffffffffffffffffffffffff166342842e0e306003600085815260200190815260200160002060000160009054906101000a900473ffffffffffffffffffffffffffffffffffffffff16876040518463ffffffff1660e01b81526004016103f69392919061171f565b600060405180830381600087803b15801561041057600080fd5b505af1158015610424573d6000803e3d6000fd5b505050506000600160009054906101000a900473ffffffffffffffffffffffffffffffffffffffff1673ffffffffffffffffffffffffffffffffffffffff1663a9059cbb6003600085815260200190815260200160002060010160009054906101000a900473ffffffffffffffffffffffffffffffffffffffff1660036000868152602001908152602001600020600201546040518363ffffffff1660e01b81526004016104d3929190611756565b6020604051808303816000875af11580156104f2573d6000803e3d6000fd5b505050506040513d601f19601f8201168201806040525081019061051691906117b7565b905080610558576040517f08c379a000000000000000000000000000000000000000000000000000000000815260040161054f90611867565b60405180910390fd5b60026003600084815260200190815260200160002060040160006101000a81548160ff0219169083600281111561059257610591611230565b5b02179055506003600083815260200190815260200160002060010160009054906101000a900473ffffffffffffffffffffffffffffffffffffffff1673ffffffffffffffffffffffffffffffffffffffff166003600084815260200190815260200160002060000160009054906101000a900473ffffffffffffffffffffffffffffffffffffffff1673ffffffffffffffffffffffffffffffffffffffff16837fd6cd72c36e4cf6fdc8774dcc10462e00eb350a0d597bf0911870e45c84112b7360405160405180910390a463150b7a0260e01b925050506106be565b808061067a906118b6565b91505061027a565b506040517f08c379a00000000000000000000000000000000000000000000000000000000081526004016106b590611970565b60405180910390fd5b949350505050565b60006003600083815260200190815260200160002090503373ffffffffffffffffffffffffffffffffffffffff168160000160009054906101000a900473ffffffffffffffffffffffffffffffffffffffff1673ffffffffffffffffffffffffffffffffffffffff161461076f576040517f08c379a000000000000000000000000000000000000000000000000000000000815260040161076690611a02565b60405180910390fd5b6000600281111561078357610782611230565b5b8160040160009054906101000a900460ff1660028111156107a7576107a6611230565b5b146107e7576040517f08c379a00000000000000000000000000000000000000000000000000000000081526004016107de90611a94565b60405180910390fd5b6000600160009054906101000a900473ffffffffffffffffffffffffffffffffffffffff1673ffffffffffffffffffffffffffffffffffffffff166323b872dd333085600201546040518463ffffffff1660e01b815260040161084c93929190611ab4565b6020604051808303816000875af115801561086b573d6000803e3d6000fd5b505050506040513d601f19601f8201168201806040525081019061088f91906117b7565b9050806108d1576040517f08c379a00000000000000000000000000000000000000000000000000000000081526004016108c890611b37565b60405180910390fd5b60018260040160006101000a81548160ff021916908360028111156108f9576108f8611230565b5b02179055503373ffffffffffffffffffffffffffffffffffffffff16837f0c556563b67f50aa671ecfa706e43a5defa18de98128267e3167fec047ccbdbd846002015460405161094991906116b6565b60405180910390a3505050565b600260009054906101000a900473ffffffffffffffffffffffffffffffffffffffff1681565b610984611016565b61098e600061109d565b565b600160009054906101000a900473ffffffffffffffffffffffffffffffffffffffff1681565b60008060009054906101000a900473ffffffffffffffffffffffffffffffffffffffff16905090565b60006003600083815260200190815260200160002090503373ffffffffffffffffffffffffffffffffffffffff168160010160009054906101000a900473ffffffffffffffffffffffffffffffffffffffff1673ffffffffffffffffffffffffffffffffffffffff1614610a88576040517f08c379a0000000000000000000000000000000000000000000000000000000008152600401610a7f90611bc9565b60405180910390fd5b60016002811115610a9c57610a9b611230565b5b8160040160009054906101000a900460ff166002811115610ac057610abf611230565b5b14610b00576040517f08c379a0000000000000000000000000000000000000000000000000000000008152600401610af790611c5b565b60405180910390fd5b6000339050600260009054906101000a900473ffffffffffffffffffffffffffffffffffffffff1673ffffffffffffffffffffffffffffffffffffffff166342842e0e823085600301546040518463ffffffff1660e01b8152600401610b6893929190611ab4565b600060405180830381600087803b158015610b8257600080fd5b505af1158015610b96573d6000803e3d6000fd5b505050503373ffffffffffffffffffffffffffffffffffffffff16837f52bb4381413bf31e41b1a275a629e166edd78669de152d1d347245339388612d8460030154604051610be591906116b6565b60405180910390a3505050565b60008073ffffffffffffffffffffffffffffffffffffffff168473ffffffffffffffffffffffffffffffffffffffff1603610c62576040517f08c379a0000000000000000000000000000000000000000000000000000000008152600401610c5990611ced565b60405180910390fd5b3373ffffffffffffffffffffffffffffffffffffffff168473ffffffffffffffffffffffffffffffffffffffff1603610cd0576040517f08c379a0000000000000000000000000000000000000000000000000000000008152600401610cc790611d59565b60405180910390fd5b82600160009054906101000a900473ffffffffffffffffffffffffffffffffffffffff1673ffffffffffffffffffffffffffffffffffffffff1663dd62ed3e33306040518363ffffffff1660e01b8152600401610d2e929190611d79565b602060405180830381865afa158015610d4b573d6000803e3d6000fd5b505050506040513d601f19601f82011682018060405250810190610d6f9190611db7565b1015610db0576040517f08c379a0000000000000000000000000000000000000000000000000000000008152600401610da790611e56565b60405180910390fd5b60046000815480929190610dc3906118b6565b9190505550600060045490506040518060a001604052803373ffffffffffffffffffffffffffffffffffffffff1681526020018673ffffffffffffffffffffffffffffffffffffffff16815260200185815260200184815260200160006002811115610e3257610e31611230565b5b8152506003600083815260200190815260200160002060008201518160000160006101000a81548173ffffffffffffffffffffffffffffffffffffffff021916908373ffffffffffffffffffffffffffffffffffffffff16021790555060208201518160010160006101000a81548173ffffffffffffffffffffffffffffffffffffffff021916908373ffffffffffffffffffffffffffffffffffffffff160217905550604082015181600201556060820151816003015560808201518160040160006101000a81548160ff02191690836002811115610f1557610f14611230565b5b02179055509050508473ffffffffffffffffffffffffffffffffffffffff163373ffffffffffffffffffffffffffffffffffffffff16827f59e4b8728799382406714f1c57de5c893d2772f9a8bf9950c5afe4397e6486548787604051610f7d929190611e76565b60405180910390a4809150509392505050565b610f98611016565b600073ffffffffffffffffffffffffffffffffffffffff168173ffffffffffffffffffffffffffffffffffffffff160361100a5760006040517f1e4fbdf7000000000000000000000000000000000000000000000000000000008152600401611001919061161c565b60405180910390fd5b6110138161109d565b50565b61101e611161565b73ffffffffffffffffffffffffffffffffffffffff1661103c6109b6565b73ffffffffffffffffffffffffffffffffffffffff161461109b5761105f611161565b6040517f118cdaa7000000000000000000000000000000000000000000000000000000008152600401611092919061161c565b60405180910390fd5b565b60008060009054906101000a900473ffffffffffffffffffffffffffffffffffffffff169050816000806101000a81548173ffffffffffffffffffffffffffffffffffffffff021916908373ffffffffffffffffffffffffffffffffffffffff1602179055508173ffffffffffffffffffffffffffffffffffffffff168173ffffffffffffffffffffffffffffffffffffffff167f8be0079c531659141344cd1fd0a4f28419497f9722a3daafe3b4186f6b6457e060405160405180910390a35050565b600033905090565b6000604051905090565b600080fd5b600080fd5b6000819050919050565b6111908161117d565b811461119b57600080fd5b50565b6000813590506111ad81611187565b92915050565b6000602082840312156111c9576111c8611173565b5b60006111d78482850161119e565b91505092915050565b600073ffffffffffffffffffffffffffffffffffffffff82169050919050565b600061120b826111e0565b9050919050565b61121b81611200565b82525050565b61122a8161117d565b82525050565b7f4e487b7100000000000000000000000000000000000000000000000000000000600052602160045260246000fd5b600381106112705761126f611230565b5b50565b60008190506112818261125f565b919050565b600061129182611273565b9050919050565b6112a181611286565b82525050565b600060a0820190506112bc6000830188611212565b6112c96020830187611212565b6112d66040830186611221565b6112e36060830185611221565b6112f06080830184611298565b9695505050505050565b6000611305826111e0565b9050919050565b611315816112fa565b811461132057600080fd5b50565b6000813590506113328161130c565b92915050565b600080fd5b600080fd5b6000601f19601f8301169050919050565b7f4e487b7100000000000000000000000000000000000000000000000000000000600052604160045260246000fd5b61138b82611342565b810181811067ffffffffffffffff821117156113aa576113a9611353565b5b80604052505050565b60006113bd611169565b90506113c98282611382565b919050565b600067ffffffffffffffff8211156113e9576113e8611353565b5b6113f282611342565b9050602081019050919050565b82818337600083830152505050565b600061142161141c846113ce565b6113b3565b90508281526020810184848401111561143d5761143c61133d565b5b6114488482856113ff565b509392505050565b600082601f83011261146557611464611338565b5b813561147584826020860161140e565b91505092915050565b6000806000806080858703121561149857611497611173565b5b60006114a687828801611323565b94505060206114b787828801611323565b93505060406114c88782880161119e565b925050606085013567ffffffffffffffff8111156114e9576114e8611178565b5b6114f587828801611450565b91505092959194509250565b60007fffffffff0000000000000000000000000000000000000000000000000000000082169050919050565b61153681611501565b82525050565b6000602082019050611551600083018461152d565b92915050565b6000819050919050565b600061157c611577611572846111e0565b611557565b6111e0565b9050919050565b600061158e82611561565b9050919050565b60006115a082611583565b9050919050565b6115b081611595565b82525050565b60006020820190506115cb60008301846115a7565b92915050565b60006115dc82611583565b9050919050565b6115ec816115d1565b82525050565b600060208201905061160760008301846115e3565b92915050565b611616816112fa565b82525050565b6000602082019050611631600083018461160d565b92915050565b61164081611200565b811461164b57600080fd5b50565b60008135905061165d81611637565b92915050565b60008060006060848603121561167c5761167b611173565b5b600061168a8682870161164e565b935050602061169b8682870161119e565b92505060406116ac8682870161119e565b9150509250925092565b60006020820190506116cb6000830184611221565b92915050565b6000602082840312156116e7576116e6611173565b5b60006116f584828501611323565b91505092915050565b600061170982611583565b9050919050565b611719816116fe565b82525050565b6000606082019050611734600083018661160d565b6117416020830185611710565b61174e6040830184611221565b949350505050565b600060408201905061176b6000830185611710565b6117786020830184611221565b9392505050565b60008115159050919050565b6117948161177f565b811461179f57600080fd5b50565b6000815190506117b18161178b565b92915050565b6000602082840312156117cd576117cc611173565b5b60006117db848285016117a2565b91505092915050565b600082825260208201905092915050565b7f4552432d3230207472616e7366657220746f2073656c6c6572206661696c656460008201527f2e00000000000000000000000000000000000000000000000000000000000000602082015250565b60006118516021836117e4565b915061185c826117f5565b604082019050919050565b6000602082019050818103600083015261188081611844565b9050919050565b7f4e487b7100000000000000000000000000000000000000000000000000000000600052601160045260246000fd5b60006118c18261117d565b91507fffffffffffffffffffffffffffffffffffffffffffffffffffffffffffffffff82036118f3576118f2611887565b5b600182019050919050565b7f45524337323120746f6b656e2072656365697665642c20627574206e6f206d6160008201527f746368696e6720657363726f7720666f756e642e000000000000000000000000602082015250565b600061195a6034836117e4565b9150611965826118fe565b604082019050919050565b600060208201905081810360008301526119898161194d565b9050919050565b7f4f6e6c79207468652062757965722063616e206465706f7369742066756e647360008201527f2e00000000000000000000000000000000000000000000000000000000000000602082015250565b60006119ec6021836117e4565b91506119f782611990565b604082019050919050565b60006020820190508181036000830152611a1b816119df565b9050919050565b7f46756e6473206861766520616c7265616479206265656e206465706f7369746560008201527f64206f7220657363726f7720697320696e76616c69642e000000000000000000602082015250565b6000611a7e6037836117e4565b9150611a8982611a22565b604082019050919050565b60006020820190508181036000830152611aad81611a71565b9050919050565b6000606082019050611ac9600083018661160d565b611ad6602083018561160d565b611ae36040830184611221565b949350505050565b7f4552432d3230207472616e73666572206661696c65642e000000000000000000600082015250565b6000611b216017836117e4565b9150611b2c82611aeb565b602082019050919050565b60006020820190508181036000830152611b5081611b14565b9050919050565b7f4f6e6c79207468652073656c6c65722063616e2064656c69766572207468652060008201527f61737365742e0000000000000000000000000000000000000000000000000000602082015250565b6000611bb36026836117e4565b9150611bbe82611b57565b604082019050919050565b60006020820190508181036000830152611be281611ba6565b9050919050565b7f457363726f77206973206e6f7420696e207468652064656c697665727920737460008201527f6174652e00000000000000000000000000000000000000000000000000000000602082015250565b6000611c456024836117e4565b9150611c5082611be9565b604082019050919050565b60006020820190508181036000830152611c7481611c38565b9050919050565b7f53656c6c65722063616e6e6f7420626520746865207a65726f2061646472657360008201527f732e000000000000000000000000000000000000000000000000000000000000602082015250565b6000611cd76022836117e4565b9150611ce282611c7b565b604082019050919050565b60006020820190508181036000830152611d0681611cca565b9050919050565b7f53656c6c65722063616e6e6f74206265207468652062757965722e0000000000600082015250565b6000611d43601b836117e4565b9150611d4e82611d0d565b602082019050919050565b60006020820190508181036000830152611d7281611d36565b9050919050565b6000604082019050611d8e600083018561160d565b611d9b602083018461160d565b9392505050565b600081519050611db181611187565b92915050565b600060208284031215611dcd57611dcc611173565b5b6000611ddb84828501611da2565b91505092915050565b7f427579657220686173206e6f7420617070726f7665642073756666696369656e60008201527f74204552432d323020746f6b656e732e00000000000000000000000000000000602082015250565b6000611e406030836117e4565b9150611e4b82611de4565b604082019050919050565b60006020820190508181036000830152611e6f81611e33565b9050919050565b6000604082019050611e8b6000830185611221565b611e986020830184611221565b939250505056fea264697066735822122097a3bc20571023355665e47fff078db8d394e2987af753fce270b0a532c2855d64736f6c63430008140033",
  "linkReferences": {},
  "deployedLinkReferences": {}
}